:0300000002076C88
:0C076C00787FE4F6D8FD75811C020003C4
:1006A700323031342D30382D313320574544003026
:1006B700303A30303A3030004D4F4E54554557455B
:0D06C7004454485546524953415453554E32
:10066500E50D75F003A424BFF582E43406F583E5B2
:10067500822512F582E43583F583E493FF12075B47
:040685007F057E006F
:10068900D3EF9400EE940040147D6E7C00ED1D7054
:0D069900011CED4C70F7EF1F70E61E80E3B2
:0106A6002231
:09073900AD0C7F031207017FC320
:10074200C2A4C2A58F80120685D2A3120685C2A3B7
:010752002284
:08075300FF120742EB2430FF06
:10075B00C2A4D2A58F80120685D2A3120685C2A38E
:01076B00226B
:0406FD00AD0A7F06BD
:10070100ED75F00A84FBED75F00A84AAF0EF24C0C0
:0A071100120753EA2430FF02075BD1
:04071B00AD0F7F059A
:10071F00ED75F00A84FBED75F00A84AAF0EF2480E2
:0A072F00120753EA2430FF02075BB3
:06057E00AD09AC08E4FF2A
:060584008F18AB05AA046C
:10058A007C037DE8AF03AE021204F38E198F1A7C46
:10059A00037DE8AF03AE021204F37E007F64CFCD81
:1005AA00CFCECCCE1204F38E1B8F1C7C007D64AFA1
:1005BA0003AE021204F37E007F0ACFCDCFCECCCE9B
:1005CA001204F38F82AE02AF037C007D0A1204F399
:1005DA00AB05AA04E5182480FF120742E51A243065
:1005EA00FF12075BE51C2430FF12075BE58224300B
:0B05FA00FF12075BEB2430FF02075BE1
:1006D400C2A37508077509DE750F0875110DE4F5D9
:1006E4000EF50CF50A7F381207427F0C1207427F81
:0906F400061207427F01020742D1
:100605001206D47F80120742E4F512E5129006A780
:100615001206800512E512C3940E40EF7FC0120743
:1006250042E4F512E5129006B61206800512E512AF
:10063500C3940840EF12057E1206FDAD0C7F031230
:100645000701AD0EE4FF120701E4F50BF50DF510FA
:10065500758901758C3C758AAFD2AFD2A9D28C222F
:10000E0020B06712068520B061051030B0FDE510F6
:10001E00B4010CC28C7FC71207427F0F120742E554
:10002E0010B402057FC4120742E510B403057FC168
:10003E00120742E510B404057F8D120742E510B495
:10004E0005057F89120742E510B406057F86120763
:10005E0042E510B407057F83120742E510B4080A83
:10006E00E4F510D28C7F0C120742E51070030203E8
:10007E005D30B1030201E712068530B1030201E7DC
:10008E0030B1FDE510B40112050AE50AB43C03E4F3
:10009E00F50A1206FD7FC6120742E510B4020D05E1
:1000AE000CE50CB43C03E4F50C120739E510B4036F
:1000BE0016050EE50EB41803E4F50E7FC0120742C6
:1000CE00AD0EE4FF120701E5106404701E050DE588
:1000DE000DB40703E4F50D7F8B120742E4F51212FF
:1000EE0006650512E512C3940340F4E5106405603D
:1000FE00030201B70511E50F64027029AE08AF09BE
:10010E007C017D90120548ED4C7008E511B41E037C
:10011E00751101ED4C70030201B0E511641D600311
:10012E000201B0807AD3E50F64809487504CE50FBE
:10013E0075F0021204D1AFF0EF70047E0180027EE2
:10014E0000E50F640260047D0180027D00ED5E60BB
:10015E0008E511641F704B8046EF60047F0180023A
:10016E007F00E50F640260047E0180027E00EF5E78
:10017E006030E5116420702A8025C3E50F648094F9
:10018E0088401FE50F75F0021204D1AFF0EF700733
:10019E00E511B4200D8008EF6008E511B41F03755A
:1001AE001101AD117F0812071FE510B4060D050FE2
:1001BE00E50FB40D03750F0112071BE510B40719F7
:1001CE000509E50970020508B4E30BE508B4070656
:1001DE007508077509DE12057E30B20302034A1256
:1001EE00068530B20302034A30B2FDE510B40112A7
:1001FE00150AE50AB4FF03750A3B1206FD7FC61207
:10020E000742E510B4020D150CE50CB4FF03750C96
:10021E003B120739E510B40316150EE50EB4FF03B5
:10022E00750E17AD0EE4FF1207017FC0120742E5EF
:10023E00106404701E150DE50DB4FF03750D067FD9
:10024E008B120742E4F5121206650512E512C394ED
:10025E000340F4E5106405600302031C1511E50F5D
:10026E0064027029AE08AF097C017D90120548ED3D
:10027E004C7007E511700375111DED4C70030203F0
:10028E0015E511600302031575111C807AD3E50F75
:10029E00648094875048E50F75F0021204D1AFF0D8
:1002AE00EF70047E0180027E00E50F640260047D23
:1002BE000180027D00ED5E6006E511704A8045EF1B
:1002CE0060047F0180027F00E50F640260047E01FE
:1002DE0080027E00EF5E602FE511702B801AC3E561
:1002EE000F648094884020E50F75F0021204D1AFA0
:1002FE00F0EF7009E511700F75111F800AEF60079E
:10030E00E511700375111EAD117F0812071FE51060
:10031E00B40609D50F03750F0C12071BE510B407B1
:10032E001BE509150970021508E509B4DD0BE50892
:10033E00B407067508077509E212057E20B3101280
:10034E00068520B30AE4F510D28C7F0C12074222E8
:03000B0002035E8F
:10035E00C0E0C0F0C083C082C0D075D000C000C065
:10036E0001C002C003C004C005C006C007758C3CA6
:10037E00758AAF050BE50B641460030204B6F50B2A
:10038E00050AE50A643C60030204B3F50A050CE5B0
:10039E000C643C60030204ACF50C050EE50E64180B
:1003AE0060030204A5F50E050D0511E50F6402703C
:1003BE003AAE08AF097C017D90120548ED4C700DE8
:1003CE00E511B41E08751101050F12071BAE08AF1B
:1003DE00097C017D90120548ED4C7003020482E504
:1003EE0011641D600302048202047AE50F64026048
:1003FE00047F0180027F00D3E50F64809487500450
:10040E007E0180027E00EE5F6023E50F75F0021222
:10041E0004D1AFF0EF7007E511B41F0F8008EF6045
:10042E0050E511B42005751101050F8044C3E50F89
:10043E0064809488403EE50F75F0021204D1A9F055
:10044E00E97021E5116420702B751101050FE50F80
:10045E00B40D0F750F010509E50970020508FD12AF
:10046E000580800DE9600DE511B41F0875110105B9
:10047E000F12071BAD117F0812071FE50DB40703FE
:10048E00750D007F8B12074275120012066505125C
:10049E00E512C3940340F4AD0EE4FF120701AD0C58
:1004AE007F031207011206FDD007D006D005D00437
:1004BE00D003D002D001D000D0D0D082D083D0F0E3
:0304CE00D0E03249
:0800030012060512000E80FB3D
:1004D100C2D530F707B2D563F0FF05F030E70CB2B3
:1004E100D5F4048463F0FF05F080018430D502F473
:0204F1000422E3
:1004F300BC000BBE0029EF8DF084FFADF022E4CCED
:10050300F875F008EF2FFFEE33FEEC33FCEE9DECB5
:10051300984005FCEE9DFE0FD5F0E9E4CEFD22EDFB
:10052300F8F5F0EE8420D21CFEADF075F008EF2F45
:10053300FFED33FD4007985006D5F0F222C398FD36
:050543000FD5F0EA22D3
:10054800C2D5EC30E709B2D5E4C39DFDE49CFCEECE
:1005580030E715B2D5E4C39FFFE49EFE1204F3C34F
:10056800E49DFDE49CFC80031204F330D507C3E44A
:060578009FFFE49EFE223D
:00000001FF
